:1000000009C00EC00DC00CC00BC00AC009C008C09A
:1000100056C054C011241FBECFE9CDBF51D0A8C0D7
:10002000EFCF85B7877E806185BF85B7806285BF4A
:10003000889585B78F7D85BF0895883010F08770CB
:10004000806294B7977F94BF91B5986191BD8064A9
:1000500081BD0895F89484B7877F84BF81B5886196
:1000600081BD11BC78940895E8DFDBDFF3CF8F7397
:10007000613009F4806487B985B7877E886085BF61
:1000800085B7806285BF889585B78F7D85BF84B130
:1000900025B190E0922B089587B3876087BB88B322
:1000A000876088BB83E294EF0197F1F700C00000FE
:1000B000319A309A379A339A78940895189518950A
:1000C000EBDFC0E005E010E0D5E0E12CF12C61E0D1
:1000D00083E0CDDFE80EF91E81EE94E00197F1F7A1
:1000E00000C00000D15099F7C701B8012DD0C2302F
:1000F00039F0C13051F08AE090E020E030E009C0F2
:1001000080E090E026EF3FEF04C080E090E02AE03E
:1001100030E026573D4F6217730728F0C198C09A08
:10012000C29AC2E00EC08C5B9D4F6817790728F019
:10013000C298C09AC19AC1E004C0C098C29AC19A3C
:10014000C0E086E091DFC0CFAA1BBB1B51E107C016
:10015000AA1FBB1FA617B70710F0A61BB70B881F57
:10016000991F5A95A9F780959095BC01CD010895E6
:04017000F894FFCF31
:00000001FF
